{
  "_format": "hh-sol-artifact-1",
  "contractName": "DomaVault",
  "sourceName": "contracts/DomaVault.sol",
  "abi": [
    {
      "inputs": [
        {
          "internalType": "address",
          "name": "_domaOwnershipToken",
          "type": "address"
        },
        {
          "internalType": "address",
          "name": "_usdcToken",
          "type": "address"
        },
        {
          "internalType": "address",
          "name": "_valuator",
          "type": "address"
        }
      ],
      "stateMutability": "nonpayable",
      "type": "constructor"
    },
    {
      "inputs": [
        {
          "internalType": "address",
          "name": "owner",
          "type": "address"
        }
      ],
      "name": "OwnableInvalidOwner",
      "type": "error"
    },
    {
      "inputs": [
        {
          "internalType": "address",
          "name": "account",
          "type": "address"
        }
      ],
      "name": "OwnableUnauthorizedAccount",
      "type": "error"
    },
    {
      "inputs": [],
      "name": "ReentrancyGuardReentrantCall",
      "type": "error"
    },
    {
      "anonymous": false,
      "inputs": [
        {
          "indexed": true,
          "internalType": "uint256",
          "name": "vaultId",
          "type": "uint256"
        },
        {
          "indexed": false,
          "internalType": "uint256",
          "name": "amount",
          "type": "uint256"
        }
      ],
      "name": "Borrowed",
      "type": "event"
    },
    {
      "anonymous": false,
      "inputs": [
        {
          "indexed": true,
          "internalType": "uint256",
          "name": "vaultId",
          "type": "uint256"
        },
        {
          "indexed": false,
          "internalType": "uint256",
          "name": "domainTokenId",
          "type": "uint256"
        }
      ],
      "name": "CollateralWithdrawn",
      "type": "event"
    },
    {
      "anonymous": false,
      "inputs": [
        {
          "indexed": true,
          "internalType": "uint256",
          "name": "vaultId",
          "type": "uint256"
        },
        {
          "indexed": false,
          "internalType": "address",
          "name": "liquidator",
          "type": "address"
        }
      ],
      "name": "Liquidated",
      "type": "event"
    },
    {
      "anonymous": false,
      "inputs": [
        {
          "indexed": true,
          "internalType": "address",
          "name": "previousOwner",
          "type": "address"
        },
        {
          "indexed": true,
          "internalType": "address",
          "name": "newOwner",
          "type": "address"
        }
      ],
      "name": "OwnershipTransferred",
      "type": "event"
    },
    {
      "anonymous": false,
      "inputs": [
        {
          "indexed": true,
          "internalType": "uint256",
          "name": "vaultId",
          "type": "uint256"
        },
        {
          "indexed": false,
          "internalType": "uint256",
          "name": "amount",
          "type": "uint256"
        }
      ],
      "name": "Repaid",
      "type": "event"
    },
    {
      "anonymous": false,
      "inputs": [
        {
          "indexed": true,
          "internalType": "uint256",
          "name": "vaultId",
          "type": "uint256"
        },
        {
          "indexed": true,
          "internalType": "address",
          "name": "owner",
          "type": "address"
        },
        {
          "indexed": false,
          "internalType": "uint256",
          "name": "domainTokenId",
          "type": "uint256"
        },
        {
          "indexed": false,
          "internalType": "uint256",
          "name": "collateralValue",
          "type": "uint256"
        }
      ],
      "name": "VaultCreated",
      "type": "event"
    },
    {
      "inputs": [],
      "name": "INTEREST_RATE",
      "outputs": [
        {
          "internalType": "uint256",
          "name": "",
          "type": "uint256"
        }
      ],
      "stateMutability": "view",
      "type": "function"
    },
    {
      "inputs": [],
      "name": "LIQUIDATION_THRESHOLD",
      "outputs": [
        {
          "internalType": "uint256",
          "name": "",
          "type": "uint256"
        }
      ],
      "stateMutability": "view",
      "type": "function"
    },
    {
      "inputs": [],
      "name": "LTV_RATIO",
      "outputs": [
        {
          "internalType": "uint256",
          "name": "",
          "type": "uint256"
        }
      ],
      "stateMutability": "view",
      "type": "function"
    },
    {
      "inputs": [
        {
          "internalType": "uint256",
          "name": "vaultId",
          "type": "uint256"
        },
        {
          "internalType": "uint256",
          "name": "amount",
          "type": "uint256"
        }
      ],
      "name": "borrow",
      "outputs": [],
      "stateMutability": "nonpayable",
      "type": "function"
    },
    {
      "inputs": [
        {
          "internalType": "uint256",
          "name": "domainTokenId",
          "type": "uint256"
        },
        {
          "internalType": "string",
          "name": "domainName",
          "type": "string"
        }
      ],
      "name": "createVault",
      "outputs": [
        {
          "internalType": "uint256",
          "name": "",
          "type": "uint256"
        }
      ],
      "stateMutability": "nonpayable",
      "type": "function"
    },
    {
      "inputs": [
        {
          "internalType": "uint256",
          "name": "amount",
          "type": "uint256"
        }
      ],
      "name": "depositLiquidity",
      "outputs": [],
      "stateMutability": "nonpayable",
      "type": "function"
    },
    {
      "inputs": [],
      "name": "domaOwnershipToken",
      "outputs": [
        {
          "internalType": "contract IERC721",
          "name": "",
          "type": "address"
        }
      ],
      "stateMutability": "view",
      "type": "function"
    },
    {
      "inputs": [
        {
          "internalType": "uint256",
          "name": "",
          "type": "uint256"
        }
      ],
      "name": "domainToVault",
      "outputs": [
        {
          "internalType": "uint256",
          "name": "",
          "type": "uint256"
        }
      ],
      "stateMutability": "view",
      "type": "function"
    },
    {
      "inputs": [
        {
          "internalType": "address",
          "name": "user",
          "type": "address"
        }
      ],
      "name": "getUserVaults",
      "outputs": [
        {
          "internalType": "uint256[]",
          "name": "",
          "type": "uint256[]"
        }
      ],
      "stateMutability": "view",
      "type": "function"
    },
    {
      "inputs": [
        {
          "internalType": "uint256",
          "name": "vaultId",
          "type": "uint256"
        }
      ],
      "name": "getVaultDetails",
      "outputs": [
        {
          "components": [
            {
              "internalType": "uint256",
              "name": "vaultId",
              "type": "uint256"
            },
            {
              "internalType": "address",
              "name": "owner",
              "type": "address"
            },
            {
              "internalType": "uint256",
              "name": "domainTokenId",
              "type": "uint256"
            },
            {
              "internalType": "uint256",
              "name": "collateralValue",
              "type": "uint256"
            },
            {
              "internalType": "uint256",
              "name": "borrowedAmount",
              "type": "uint256"
            },
            {
              "internalType": "uint256",
              "name": "lastUpdated",
              "type": "uint256"
            },
            {
              "internalType": "uint256",
              "name": "interestAccrued",
              "type": "uint256"
            },
            {
              "internalType": "bool",
              "name": "isActive",
              "type": "bool"
            },
            {
              "internalType": "string",
              "name": "domainName",
              "type": "string"
            }
          ],
          "internalType": "struct DomaVault.Vault",
          "name": "",
          "type": "tuple"
        }
      ],
      "stateMutability": "view",
      "type": "function"
    },
    {
      "inputs": [
        {
          "internalType": "uint256",
          "name": "vaultId",
          "type": "uint256"
        }
      ],
      "name": "getVaultHealth",
      "outputs": [
        {
          "internalType": "uint256",
          "name": "currentLTV",
          "type": "uint256"
        },
        {
          "internalType": "bool",
          "name": "isHealthy",
          "type": "bool"
        }
      ],
      "stateMutability": "view",
      "type": "function"
    },
    {
      "inputs": [],
      "name": "owner",
      "outputs": [
        {
          "internalType": "address",
          "name": "",
          "type": "address"
        }
      ],
      "stateMutability": "view",
      "type": "function"
    },
    {
      "inputs": [],
      "name": "renounceOwnership",
      "outputs": [],
      "stateMutability": "nonpayable",
      "type": "function"
    },
    {
      "inputs": [
        {
          "internalType": "uint256",
          "name": "vaultId",
          "type": "uint256"
        },
        {
          "internalType": "uint256",
          "name": "amount",
          "type": "uint256"
        }
      ],
      "name": "repay",
      "outputs": [],
      "stateMutability": "nonpayable",
      "type": "function"
    },
    {
      "inputs": [],
      "name": "totalBorrowed",
      "outputs": [
        {
          "internalType": "uint256",
          "name": "",
          "type": "uint256"
        }
      ],
      "stateMutability": "view",
      "type": "function"
    },
    {
      "inputs": [],
      "name": "totalValueLocked",
      "outputs": [
        {
          "internalType": "uint256",
          "name": "",
          "type": "uint256"
        }
      ],
      "stateMutability": "view",
      "type": "function"
    },
    {
      "inputs": [
        {
          "internalType": "address",
          "name": "newOwner",
          "type": "address"
        }
      ],
      "name": "transferOwnership",
      "outputs": [],
      "stateMutability": "nonpayable",
      "type": "function"
    },
    {
      "inputs": [],
      "name": "usdcToken",
      "outputs": [
        {
          "internalType": "contract IERC20",
          "name": "",
          "type": "address"
        }
      ],
      "stateMutability": "view",
      "type": "function"
    },
    {
      "inputs": [
        {
          "internalType": "address",
          "name": "",
          "type": "address"
        },
        {
          "internalType": "uint256",
          "name": "",
          "type": "uint256"
        }
      ],
      "name": "userVaults",
      "outputs": [
        {
          "internalType": "uint256",
          "name": "",
          "type": "uint256"
        }
      ],
      "stateMutability": "view",
      "type": "function"
    },
    {
      "inputs": [],
      "name": "valuator",
      "outputs": [
        {
          "internalType": "contract IDomainValuator",
          "name": "",
          "type": "address"
        }
      ],
      "stateMutability": "view",
      "type": "function"
    },
    {
      "inputs": [],
      "name": "vaultCount",
      "outputs": [
        {
          "internalType": "uint256",
          "name": "",
          "type": "uint256"
        }
      ],
      "stateMutability": "view",
      "type": "function"
    },
    {
      "inputs": [
        {
          "internalType": "uint256",
          "name": "",
          "type": "uint256"
        }
      ],
      "name": "vaults",
      "outputs": [
        {
          "internalType": "uint256",
          "name": "vaultId",
          "type": "uint256"
        },
        {
          "internalType": "address",
          "name": "owner",
          "type": "address"
        },
        {
          "internalType": "uint256",
          "name": "domainTokenId",
          "type": "uint256"
        },
        {
          "internalType": "uint256",
          "name": "collateralValue",
          "type": "uint256"
        },
        {
          "internalType": "uint256",
          "name": "borrowedAmount",
          "type": "uint256"
        },
        {
          "internalType": "uint256",
          "name": "lastUpdated",
          "type": "uint256"
        },
        {
          "internalType": "uint256",
          "name": "interestAccrued",
          "type": "uint256"
        },
        {
          "internalType": "bool",
          "name": "isActive",
          "type": "bool"
        },
        {
          "internalType": "string",
          "name": "domainName",
          "type": "string"
        }
      ],
      "stateMutability": "view",
      "type": "function"
    },
    {
      "inputs": [
        {
          "internalType": "uint256",
          "name": "vaultId",
          "type": "uint256"
        }
      ],
      "name": "withdrawCollateral",
      "outputs": [],
      "stateMutability": "nonpayable",
      "type": "function"
    },
    {
      "inputs": [
        {
          "internalType": "uint256",
          "name": "amount",
          "type": "uint256"
        }
      ],
      "name": "withdrawLiquidity",
      "outputs": [],
      "stateMutability": "nonpayable",
      "type": "function"
    }
  ],
  "bytecode": "0x608060405234801561001057600080fd5b50604051611a74380380611a7483398101604081905261002f91610114565b6001600055338061005a57604051631e4fbdf760e01b81526000600482015260240160405180910390fd5b610063816100a6565b50600280546001600160a01b039485166001600160a01b031991821617909155600380549385169382169390931790925560048054919093169116179055610157565b600180546001600160a01b038381166001600160a01b0319831681179093556040519116919082907f8be0079c531659141344cd1fd0a4f28419497f9722a3daafe3b4186f6b6457e090600090a35050565b80516001600160a01b038116811461010f57600080fd5b919050565b60008060006060848603121561012957600080fd5b610132846100f8565b9250610140602085016100f8565b915061014e604085016100f8565b90509250925092565b61190e806101666000396000f3fe608060405234801561001057600080fd5b50600436106101585760003560e01c80637a8a3af6116100c3578063bd0ba4411161007c578063bd0ba441146102d5578063c0b579c0146102e8578063d8aed14514610308578063e7f3c69c1461031b578063ec18154e1461033b578063f2fde38b1461034457600080fd5b80637a8a3af6146102655780638c64ea4a146102785780638da5cb5b146102a057806390a8ae9b146102b15780639c841fef146102b9578063a7c6a100146102cc57600080fd5b80634c19386c116101155780634c19386c1461021e5780635696b189146102275780635b72a33a1461022f5780636112fe2e14610237578063715018a61461024a57806376d58e1a1461025257600080fd5b80630a861f2a1461015d5780630ecbcdab1461017257806311eac8551461018557806323e34cbc146101b557806326f27ffa146101dd578063334882af1461020b575b600080fd5b61017061016b36600461136a565b610357565b005b610170610180366004611383565b6103fd565b600354610198906001600160a01b031681565b6040516001600160a01b0390911681526020015b60405180910390f35b6101c86101c336600461136a565b610632565b604080519283529015156020830152016101ac565b6101fd6101eb36600461136a565b60096020526000908152604090205481565b6040519081526020016101ac565b600254610198906001600160a01b031681565b6101fd60075481565b6101fd604681565b6101fd600581565b61017061024536600461136a565b6106b0565b61017061088d565b61017061026036600461136a565b6108a1565b6101fd6102733660046113bb565b6108d5565b61028b61028636600461136a565b610cc6565b6040516101ac999897969594939291906114c4565b6001546001600160a01b0316610198565b6101fd605081565b6101fd6102c7366004611538565b610daa565b6101fd60055481565b600454610198906001600160a01b031681565b6102fb6102f636600461136a565b610ddb565b6040516101ac9190611564565b610170610316366004611383565b610f4d565b61032e6103293660046115f6565b61114c565b6040516101ac919061161a565b6101fd60065481565b6101706103523660046115f6565b6111b8565b61035f6111f3565b60035460405163a9059cbb60e01b8152336004820152602481018390526001600160a01b039091169063a9059cbb906044015b6020604051808303816000875af11580156103b1573d6000803e3d6000fd5b505050506040513d601f19601f820116820180604052508101906103d5919061165d565b6103fa5760405162461bcd60e51b81526004016103f19061167f565b60405180910390fd5b50565b610405611220565b6000828152600860205260409020600781015460ff1661045a5760405162461bcd60e51b815260206004820152601060248201526f5661756c74206e6f742061637469766560801b60448201526064016103f1565b60018101546001600160a01b031633146104a85760405162461bcd60e51b815260206004820152600f60248201526e2737ba103b30bab63a1037bbb732b960891b60448201526064016103f1565b6104b18361124a565b60006064604683600301546104c691906116be565b6104d091906116d5565b9050808383600401546104e391906116f7565b11156105255760405162461bcd60e51b815260206004820152601160248201527045786365656473204c545620726174696f60781b60448201526064016103f1565b8282600401600082825461053991906116f7565b92505081905550826007600082825461055291906116f7565b909155505060035460405163a9059cbb60e01b8152336004820152602481018590526001600160a01b039091169063a9059cbb906044016020604051808303816000875af11580156105a8573d6000803e3d6000fd5b505050506040513d601f19601f820116820180604052508101906105cc919061165d565b6105e85760405162461bcd60e51b81526004016103f19061167f565b837f14a13f958d7fe38fb8529e8d43353b6d9120f52444e486a4077f68a3fc77dcbf8460405161061a91815260200190565b60405180910390a2505061062e6001600055565b5050565b6000818152600860205260408120600781015482919060ff16158061065957506004810154155b1561066b575060009360019350915050565b60006106768561129c565b826004015461068591906116f7565b60038301549091506106988260646116be565b6106a291906116d5565b956050871095509350505050565b6106b8611220565b600081815260086020526040902060018101546001600160a01b031633146107145760405162461bcd60e51b815260206004820152600f60248201526e2737ba103b30bab63a1037bbb732b960891b60448201526064016103f1565b6004810154156107595760405162461bcd60e51b815260206004820152601060248201526f13dd5d1cdd185b991a5b99c81919589d60821b60448201526064016103f1565b6006810154156107a25760405162461bcd60e51b815260206004820152601460248201527313dd5d1cdd185b991a5b99c81a5b9d195c995cdd60621b60448201526064016103f1565b600281015460078201805460ff191690556003820154600680546000906107ca90849061170a565b90915550506000818152600960205260408082209190915560025490516323b872dd60e01b81526001600160a01b03909116906323b872dd906108159030903390869060040161171d565b600060405180830381600087803b15801561082f57600080fd5b505af1158015610843573d6000803e3d6000fd5b50505050827f2399e8aed1977410745a5211d8226a3a7d9278f50a8a197c5ec6e285bb437f0b8260405161087991815260200190565b60405180910390a250506103fa6001600055565b6108956111f3565b61089f6000611318565b565b6003546040516323b872dd60e01b81526001600160a01b03909116906323b872dd906103929033903090869060040161171d565b60006108df611220565b6002546040516331a9108f60e11b81526004810185905233916001600160a01b031690636352211e90602401602060405180830381865afa158015610928573d6000803e3d6000fd5b505050506040513d601f19601f8201168201806040525081019061094c9190611741565b6001600160a01b0316146109955760405162461bcd60e51b815260206004820152601060248201526f2737ba103237b6b0b4b71037bbb732b960811b60448201526064016103f1565b600083815260096020526040902054156109f15760405162461bcd60e51b815260206004820152601760248201527f446f6d61696e20616c726561647920696e207661756c7400000000000000000060448201526064016103f1565b6004805460405163f3a72a8960e01b81529182018590526000916001600160a01b039091169063f3a72a8990602401602060405180830381865afa158015610a3d573d6000803e3d6000fd5b505050506040513d601f19601f82011682018060405250810190610a61919061175e565b905060008111610aaa5760405162461bcd60e51b8152602060048201526014602482015273496e76616c696420646f6d61696e2076616c756560601b60448201526064016103f1565b6002546040516323b872dd60e01b81526001600160a01b03909116906323b872dd90610ade9033903090899060040161171d565b600060405180830381600087803b158015610af857600080fd5b505af1158015610b0c573d6000803e3d6000fd5b505060058054925090506000610b2183611777565b919050555060006005549050604051806101200160405280828152602001336001600160a01b03168152602001868152602001838152602001600081526020014281526020016000815260200160011515815260200185815250600860008381526020019081526020016000206000820151816000015560208201518160010160006101000a8154816001600160a01b0302191690836001600160a01b0316021790555060408201518160020155606082015181600301556080820151816004015560a0820151816005015560c0820151816006015560e08201518160070160006101000a81548160ff021916908315150217905550610100820151816008019081610c2d9190611819565b5050506000858152600960209081526040808320849055338352600a8252822080546001810182559083529082200182905560068054849290610c719084906116f7565b90915550506040805186815260208101849052339183917f54487e66a4f99b14ab526adbf62917d34504308148885dbe38e6a9e6c2b399a5910160405180910390a3915050610cc06001600055565b92915050565b600860208190526000918252604090912080546001820154600283015460038401546004850154600586015460068701546007880154988801805497996001600160a01b03909716989597949693959294919360ff169291610d2790611790565b80601f0160208091040260200160405190810160405280929190818152602001828054610d5390611790565b8015610da05780601f10610d7557610100808354040283529160200191610da0565b820191906000526020600020905b815481529060010190602001808311610d8357829003601f168201915b5050505050905089565b600a6020528160005260406000208181548110610dc657600080fd5b90600052602060002001600091509150505481565b610e356040518061012001604052806000815260200160006001600160a01b031681526020016000815260200160008152602001600081526020016000815260200160008152602001600015158152602001606081525090565b6000828152600860208181526040928390208351610120810185528154815260018201546001600160a01b0316928101929092526002810154938201939093526003830154606082015260048301546080820152600583015460a0820152600683015460c0820152600783015460ff16151560e0820152908201805491929161010084019190610ec490611790565b80601f0160208091040260200160405190810160405280929190818152602001828054610ef090611790565b8015610f3d5780601f10610f1257610100808354040283529160200191610f3d565b820191906000526020600020905b815481529060010190602001808311610f2057829003601f168201915b5050505050815250509050919050565b610f55611220565b6000828152600860205260409020600781015460ff16610faa5760405162461bcd60e51b815260206004820152601060248201526f5661756c74206e6f742061637469766560801b60448201526064016103f1565b610fb38361124a565b600081600601548260040154610fc991906116f7565b9050808311156110115760405162461bcd60e51b8152602060048201526013602482015272105b5bdd5b9d08195e18d959591cc81919589d606a1b60448201526064016103f1565b6003546040516323b872dd60e01b81526001600160a01b03909116906323b872dd906110459033903090889060040161171d565b6020604051808303816000875af1158015611064573d6000803e3d6000fd5b505050506040513d601f19601f82011682018060405250810190611088919061165d565b6110a45760405162461bcd60e51b81526004016103f19061167f565b816006015483106110e95760068201546110be908461170a565b925060008260060181905550828260040160008282546110de919061170a565b909155506111039050565b828260060160008282546110fd919061170a565b90915550505b8260076000828254611115919061170a565b909155505060405183815284907f81472a96709c8315c82af40d41ef624a642ad53864b097e53af675593bb4e0359060200161061a565b6001600160a01b0381166000908152600a60209081526040918290208054835181840281018401909452808452606093928301828280156111ac57602002820191906000526020600020905b815481526020019060010190808311611198575b50505050509050919050565b6111c06111f3565b6001600160a01b0381166111ea57604051631e4fbdf760e01b8152600060048201526024016103f1565b6103fa81611318565b6001546001600160a01b0316331461089f5760405163118cdaa760e01b81523360048201526024016103f1565b60026000540361124357604051633ee5aeb560e01b815260040160405180910390fd5b6002600055565b60008181526008602052604081206004810154909103611268575050565b60006112738361129c565b90508082600601600082825461128991906116f7565b9091555050426005909201919091555050565b6000818152600860205260408120600481015482036112be5750600092915050565b60008160050154426112d0919061170a565b905060006064600584600401546112e791906116be565b6112f191906116d5565b905060006301e1338061130484846116be565b61130e91906116d5565b9695505050505050565b600180546001600160a01b038381166001600160a01b0319831681179093556040519116919082907f8be0079c531659141344cd1fd0a4f28419497f9722a3daafe3b4186f6b6457e090600090a35050565b60006020828403121561137c57600080fd5b5035919050565b6000806040838503121561139657600080fd5b50508035926020909101359150565b634e487b7160e01b600052604160045260246000fd5b600080604083850312156113ce57600080fd5b82359150602083013567ffffffffffffffff8111156113ec57600080fd5b8301601f810185136113fd57600080fd5b803567ffffffffffffffff811115611417576114176113a5565b604051601f8201601f19908116603f0116810167ffffffffffffffff81118282101715611446576114466113a5565b60405281815282820160200187101561145e57600080fd5b816020840160208301376000602083830101528093505050509250929050565b6000815180845260005b818110156114a457602081850181015186830182015201611488565b506000602082860101526020601f19601f83011685010191505092915050565b89815260018060a01b03891660208201528760408201528660608201528560808201528460a08201528360c082015282151560e0820152610120610100820152600061151461012083018461147e565b9b9a5050505050505050505050565b6001600160a01b03811681146103fa57600080fd5b6000806040838503121561154b57600080fd5b823561155681611523565b946020939093013593505050565b60208152815160208201526000602083015161158b60408401826001600160a01b03169052565b506040830151606083015260608301516080830152608083015160a083015260a083015160c083015260c083015160e083015260e08301516115d261010084018215159052565b50610100830151610120808401526115ee61014084018261147e565b949350505050565b60006020828403121561160857600080fd5b813561161381611523565b9392505050565b602080825282518282018190526000918401906040840190835b81811015611652578351835260209384019390920191600101611634565b509095945050505050565b60006020828403121561166f57600080fd5b8151801515811461161357600080fd5b6020808252600f908201526e151c985b9cd9995c8819985a5b1959608a1b604082015260600190565b634e487b7160e01b600052601160045260246000fd5b8082028115828204841417610cc057610cc06116a8565b6000826116f257634e487b7160e01b600052601260045260246000fd5b500490565b80820180821115610cc057610cc06116a8565b81810381811115610cc057610cc06116a8565b6001600160a01b039384168152919092166020820152604081019190915260600190565b60006020828403121561175357600080fd5b815161161381611523565b60006020828403121561177057600080fd5b5051919050565b600060018201611789576117896116a8565b5060010190565b600181811c908216806117a457607f821691505b6020821081036117c457634e487b7160e01b600052602260045260246000fd5b50919050565b601f82111561181457806000526020600020601f840160051c810160208510156117f15750805b601f840160051c820191505b8181101561181157600081556001016117fd565b50505b505050565b815167ffffffffffffffff811115611833576118336113a5565b611847816118418454611790565b846117ca565b6020601f82116001811461187b57600083156118635750848201515b600019600385901b1c1916600184901b178455611811565b600084815260208120601f198516915b828110156118ab578785015182556020948501946001909201910161188b565b50848210156118c95786840151600019600387901b60f8161c191681555b50505050600190811b0190555056fea26469706673582212200c3c45473cd44e51d1b763c2100adb51ac0fd87ae27d7161fa4829ef045426c664736f6c634300081c0033",
  "linkReferences": {},
  "deployedLinkReferences": {}
}