{
  "_format": "hh-sol-artifact-1",
  "contractName": "MockDomainNFT",
  "sourceName": "contracts/mocks/MockDomainNFT.sol",
  "abi": [
    {
      "inputs": [],
      "stateMutability": "nonpayable",
      "type": "constructor"
    },
    {
      "inputs": [
        {
          "internalType": "address",
          "name": "sender",
          "type": "address"
        },
        {
          "internalType": "uint256",
          "name": "tokenId",
          "type": "uint256"
        },
        {
          "internalType": "address",
          "name": "owner",
          "type": "address"
        }
      ],
      "name": "ERC721IncorrectOwner",
      "type": "error"
    },
    {
      "inputs": [
        {
          "internalType": "address",
          "name": "operator",
          "type": "address"
        },
        {
          "internalType": "uint256",
          "name": "tokenId",
          "type": "uint256"
        }
      ],
      "name": "ERC721InsufficientApproval",
      "type": "error"
    },
    {
      "inputs": [
        {
          "internalType": "address",
          "name": "approver",
          "type": "address"
        }
      ],
      "name": "ERC721InvalidApprover",
      "type": "error"
    },
    {
      "inputs": [
        {
          "internalType": "address",
          "name": "operator",
          "type": "address"
        }
      ],
      "name": "ERC721InvalidOperator",
      "type": "error"
    },
    {
      "inputs": [
        {
          "internalType": "address",
          "name": "owner",
          "type": "address"
        }
      ],
      "name": "ERC721InvalidOwner",
      "type": "error"
    },
    {
      "inputs": [
        {
          "internalType": "address",
          "name": "receiver",
          "type": "address"
        }
      ],
      "name": "ERC721InvalidReceiver",
      "type": "error"
    },
    {
      "inputs": [
        {
          "internalType": "address",
          "name": "sender",
          "type": "address"
        }
      ],
      "name": "ERC721InvalidSender",
      "type": "error"
    },
    {
      "inputs": [
        {
          "internalType": "uint256",
          "name": "tokenId",
          "type": "uint256"
        }
      ],
      "name": "ERC721NonexistentToken",
      "type": "error"
    },
    {
      "inputs": [
        {
          "internalType": "address",
          "name": "owner",
          "type": "address"
        }
      ],
      "name": "OwnableInvalidOwner",
      "type": "error"
    },
    {
      "inputs": [
        {
          "internalType": "address",
          "name": "account",
          "type": "address"
        }
      ],
      "name": "OwnableUnauthorizedAccount",
      "type": "error"
    },
    {
      "anonymous": false,
      "inputs": [
        {
          "indexed": true,
          "internalType": "address",
          "name": "owner",
          "type": "address"
        },
        {
          "indexed": true,
          "internalType": "address",
          "name": "approved",
          "type": "address"
        },
        {
          "indexed": true,
          "internalType": "uint256",
          "name": "tokenId",
          "type": "uint256"
        }
      ],
      "name": "Approval",
      "type": "event"
    },
    {
      "anonymous": false,
      "inputs": [
        {
          "indexed": true,
          "internalType": "address",
          "name": "owner",
          "type": "address"
        },
        {
          "indexed": true,
          "internalType": "address",
          "name": "operator",
          "type": "address"
        },
        {
          "indexed": false,
          "internalType": "bool",
          "name": "approved",
          "type": "bool"
        }
      ],
      "name": "ApprovalForAll",
      "type": "event"
    },
    {
      "anonymous": false,
      "inputs": [
        {
          "indexed": true,
          "internalType": "address",
          "name": "previousOwner",
          "type": "address"
        },
        {
          "indexed": true,
          "internalType": "address",
          "name": "newOwner",
          "type": "address"
        }
      ],
      "name": "OwnershipTransferred",
      "type": "event"
    },
    {
      "anonymous": false,
      "inputs": [
        {
          "indexed": true,
          "internalType": "address",
          "name": "from",
          "type": "address"
        },
        {
          "indexed": true,
          "internalType": "address",
          "name": "to",
          "type": "address"
        },
        {
          "indexed": true,
          "internalType": "uint256",
          "name": "tokenId",
          "type": "uint256"
        }
      ],
      "name": "Transfer",
      "type": "event"
    },
    {
      "inputs": [
        {
          "internalType": "address",
          "name": "to",
          "type": "address"
        },
        {
          "internalType": "uint256",
          "name": "tokenId",
          "type": "uint256"
        }
      ],
      "name": "approve",
      "outputs": [],
      "stateMutability": "nonpayable",
      "type": "function"
    },
    {
      "inputs": [
        {
          "internalType": "address",
          "name": "owner",
          "type": "address"
        }
      ],
      "name": "balanceOf",
      "outputs": [
        {
          "internalType": "uint256",
          "name": "",
          "type": "uint256"
        }
      ],
      "stateMutability": "view",
      "type": "function"
    },
    {
      "inputs": [
        {
          "internalType": "uint256",
          "name": "",
          "type": "uint256"
        }
      ],
      "name": "domainNames",
      "outputs": [
        {
          "internalType": "string",
          "name": "",
          "type": "string"
        }
      ],
      "stateMutability": "view",
      "type": "function"
    },
    {
      "inputs": [
        {
          "internalType": "uint256",
          "name": "tokenId",
          "type": "uint256"
        }
      ],
      "name": "getApproved",
      "outputs": [
        {
          "internalType": "address",
          "name": "",
          "type": "address"
        }
      ],
      "stateMutability": "view",
      "type": "function"
    },
    {
      "inputs": [
        {
          "internalType": "uint256",
          "name": "tokenId",
          "type": "uint256"
        }
      ],
      "name": "getDomainName",
      "outputs": [
        {
          "internalType": "string",
          "name": "",
          "type": "string"
        }
      ],
      "stateMutability": "view",
      "type": "function"
    },
    {
      "inputs": [
        {
          "internalType": "address",
          "name": "owner",
          "type": "address"
        },
        {
          "internalType": "address",
          "name": "operator",
          "type": "address"
        }
      ],
      "name": "isApprovedForAll",
      "outputs": [
        {
          "internalType": "bool",
          "name": "",
          "type": "bool"
        }
      ],
      "stateMutability": "view",
      "type": "function"
    },
    {
      "inputs": [
        {
          "internalType": "address",
          "name": "to",
          "type": "address"
        },
        {
          "internalType": "uint256",
          "name": "tokenId",
          "type": "uint256"
        }
      ],
      "name": "mint",
      "outputs": [],
      "stateMutability": "nonpayable",
      "type": "function"
    },
    {
      "inputs": [],
      "name": "name",
      "outputs": [
        {
          "internalType": "string",
          "name": "",
          "type": "string"
        }
      ],
      "stateMutability": "view",
      "type": "function"
    },
    {
      "inputs": [],
      "name": "owner",
      "outputs": [
        {
          "internalType": "address",
          "name": "",
          "type": "address"
        }
      ],
      "stateMutability": "view",
      "type": "function"
    },
    {
      "inputs": [
        {
          "internalType": "uint256",
          "name": "tokenId",
          "type": "uint256"
        }
      ],
      "name": "ownerOf",
      "outputs": [
        {
          "internalType": "address",
          "name": "",
          "type": "address"
        }
      ],
      "stateMutability": "view",
      "type": "function"
    },
    {
      "inputs": [],
      "name": "renounceOwnership",
      "outputs": [],
      "stateMutability": "nonpayable",
      "type": "function"
    },
    {
      "inputs": [
        {
          "internalType": "address",
          "name": "from",
          "type": "address"
        },
        {
          "internalType": "address",
          "name": "to",
          "type": "address"
        },
        {
          "internalType": "uint256",
          "name": "tokenId",
          "type": "uint256"
        }
      ],
      "name": "safeTransferFrom",
      "outputs": [],
      "stateMutability": "nonpayable",
      "type": "function"
    },
    {
      "inputs": [
        {
          "internalType": "address",
          "name": "from",
          "type": "address"
        },
        {
          "internalType": "address",
          "name": "to",
          "type": "address"
        },
        {
          "internalType": "uint256",
          "name": "tokenId",
          "type": "uint256"
        },
        {
          "internalType": "bytes",
          "name": "data",
          "type": "bytes"
        }
      ],
      "name": "safeTransferFrom",
      "outputs": [],
      "stateMutability": "nonpayable",
      "type": "function"
    },
    {
      "inputs": [
        {
          "internalType": "address",
          "name": "operator",
          "type": "address"
        },
        {
          "internalType": "bool",
          "name": "approved",
          "type": "bool"
        }
      ],
      "name": "setApprovalForAll",
      "outputs": [],
      "stateMutability": "nonpayable",
      "type": "function"
    },
    {
      "inputs": [
        {
          "internalType": "bytes4",
          "name": "interfaceId",
          "type": "bytes4"
        }
      ],
      "name": "supportsInterface",
      "outputs": [
        {
          "internalType": "bool",
          "name": "",
          "type": "bool"
        }
      ],
      "stateMutability": "view",
      "type": "function"
    },
    {
      "inputs": [],
      "name": "symbol",
      "outputs": [
        {
          "internalType": "string",
          "name": "",
          "type": "string"
        }
      ],
      "stateMutability": "view",
      "type": "function"
    },
    {
      "inputs": [
        {
          "internalType": "uint256",
          "name": "tokenId",
          "type": "uint256"
        }
      ],
      "name": "tokenURI",
      "outputs": [
        {
          "internalType": "string",
          "name": "",
          "type": "string"
        }
      ],
      "stateMutability": "view",
      "type": "function"
    },
    {
      "inputs": [
        {
          "internalType": "address",
          "name": "from",
          "type": "address"
        },
        {
          "internalType": "address",
          "name": "to",
          "type": "address"
        },
        {
          "internalType": "uint256",
          "name": "tokenId",
          "type": "uint256"
        }
      ],
      "name": "transferFrom",
      "outputs": [],
      "stateMutability": "nonpayable",
      "type": "function"
    },
    {
      "inputs": [
        {
          "internalType": "address",
          "name": "newOwner",
          "type": "address"
        }
      ],
      "name": "transferOwnership",
      "outputs": [],
      "stateMutability": "nonpayable",
      "type": "function"
    }
  ],
  "bytecode": "0x608060405234801561001057600080fd5b50336040518060400160405280600b81526020016a26b7b1b5902237b6b0b4b760a91b815250604051806040016040528060068152602001652227a6a0a4a760d11b815250816000908161006491906101a2565b50600161007182826101a2565b5050506001600160a01b0381166100a257604051631e4fbdf760e01b81526000600482015260240160405180910390fd5b6100ab816100b1565b50610260565b600680546001600160a01b038381166001600160a01b0319831681179093556040519116919082907f8be0079c531659141344cd1fd0a4f28419497f9722a3daafe3b4186f6b6457e090600090a35050565b634e487b7160e01b600052604160045260246000fd5b600181811c9082168061012d57607f821691505b60208210810361014d57634e487b7160e01b600052602260045260246000fd5b50919050565b601f82111561019d57806000526020600020601f840160051c8101602085101561017a5750805b601f840160051c820191505b8181101561019a5760008155600101610186565b50505b505050565b81516001600160401b038111156101bb576101bb610103565b6101cf816101c98454610119565b84610153565b6020601f82116001811461020357600083156101eb5750848201515b600019600385901b1c1916600184901b17845561019a565b600084815260208120601f198516915b828110156102335787850151825560209485019460019092019101610213565b50848210156102515786840151600019600387901b60f8161c191681555b50505050600190811b01905550565b6113fa8061026f6000396000f3fe608060405234801561001057600080fd5b50600436106101215760003560e01c806370a08231116100ad578063a22cb46511610071578063a22cb46514610257578063b88d4fde1461026a578063c87b56dd1461027d578063e985e9c514610290578063f2fde38b146102a357600080fd5b806370a0823114610202578063715018a61461022357806374b969311461022b5780638da5cb5b1461023e57806395d89b411461024f57600080fd5b806323b872dd116100f457806323b872dd146101a357806340c10f19146101b657806342842e0e146101c95780636352211e146101dc578063636921cf146101ef57600080fd5b806301ffc9a71461012657806306fdde031461014e578063081812fc14610163578063095ea7b31461018e575b600080fd5b610139610134366004610f5b565b6102b6565b60405190151581526020015b60405180910390f35b610156610308565b6040516101459190610fc8565b610176610171366004610fdb565b61039a565b6040516001600160a01b039091168152602001610145565b6101a161019c366004611010565b6103c3565b005b6101a16101b136600461103a565b6103d2565b6101a16101c4366004611010565b610462565b6101a16101d736600461103a565b61054c565b6101766101ea366004610fdb565b610567565b6101566101fd366004610fdb565b610572565b610215610210366004611077565b61060c565b604051908152602001610145565b6101a1610654565b610156610239366004610fdb565b610668565b6006546001600160a01b0316610176565b61015661070a565b6101a1610265366004611092565b610719565b6101a16102783660046110e4565b610724565b61015661028b366004610fdb565b61073c565b61013961029e3660046111c8565b6107b1565b6101a16102b1366004611077565b6107df565b60006001600160e01b031982166380ac58cd60e01b14806102e757506001600160e01b03198216635b5e139f60e01b145b8061030257506301ffc9a760e01b6001600160e01b03198316145b92915050565b606060008054610317906111fb565b80601f0160208091040260200160405190810160405280929190818152602001828054610343906111fb565b80156103905780601f1061036557610100808354040283529160200191610390565b820191906000526020600020905b81548152906001019060200180831161037357829003601f168201915b5050505050905090565b60006103a58261081d565b506000828152600460205260409020546001600160a01b0316610302565b6103ce828233610856565b5050565b6001600160a01b03821661040157604051633250574960e11b8152600060048201526024015b60405180910390fd5b600061040e838333610863565b9050836001600160a01b0316816001600160a01b03161461045c576040516364283d7b60e01b81526001600160a01b03808616600483015260248201849052821660448201526064016103f8565b50505050565b61046c828261095c565b806001036104b7576040518060400160405280600981526020016863727970746f2e696f60b81b8152506008600083815260200190815260200160002090816104b5919061127c565b505b806002036105005760405180604001604052806007815260200166776562332e696f60c81b8152506008600083815260200190815260200160002090816104fe919061127c565b505b806003036103ce5760405180604001604052806007815260200166646566692e696f60c81b815250600860008381526020019081526020016000209081610547919061127c565b505050565b61054783838360405180602001604052806000815250610724565b60006103028261081d565b6008602052600090815260409020805461058b906111fb565b80601f01602080910402602001604051908101604052809291908181526020018280546105b7906111fb565b80156106045780601f106105d957610100808354040283529160200191610604565b820191906000526020600020905b8154815290600101906020018083116105e757829003601f168201915b505050505081565b60006001600160a01b038216610638576040516322718ad960e21b8152600060048201526024016103f8565b506001600160a01b031660009081526003602052604090205490565b61065c6109c1565b61066660006109ee565b565b6000818152600860205260409020805460609190610685906111fb565b80601f01602080910402602001604051908101604052809291908181526020018280546106b1906111fb565b80156106fe5780601f106106d3576101008083540402835291602001916106fe565b820191906000526020600020905b8154815290600101906020018083116106e157829003601f168201915b50505050509050919050565b606060018054610317906111fb565b6103ce338383610a40565b61072f8484846103d2565b61045c3385858585610adf565b60606107478261081d565b50600061075f60408051602081019091526000815290565b9050600081511161077f57604051806020016040528060008152506107aa565b8061078984610c0a565b60405160200161079a92919061133b565b6040516020818303038152906040525b9392505050565b6001600160a01b03918216600090815260056020908152604080832093909416825291909152205460ff1690565b6107e76109c1565b6001600160a01b03811661081157604051631e4fbdf760e01b8152600060048201526024016103f8565b61081a816109ee565b50565b6000818152600260205260408120546001600160a01b03168061030257604051637e27328960e01b8152600481018490526024016103f8565b6105478383836001610c9d565b6000828152600260205260408120546001600160a01b039081169083161561089057610890818486610da3565b6001600160a01b038116156108ce576108ad600085600080610c9d565b6001600160a01b038116600090815260036020526040902080546000190190555b6001600160a01b038516156108fd576001600160a01b0385166000908152600360205260409020805460010190555b60008481526002602052604080822080546001600160a01b0319166001600160a01b0389811691821790925591518793918516917fddf252ad1be2c89b69c2b068fc378daa952ba7f163c4a11628f55a4df523b3ef91a4949350505050565b6001600160a01b03821661098657604051633250574960e11b8152600060048201526024016103f8565b600061099483836000610863565b90506001600160a01b03811615610547576040516339e3563760e11b8152600060048201526024016103f8565b6006546001600160a01b031633146106665760405163118cdaa760e01b81523360048201526024016103f8565b600680546001600160a01b038381166001600160a01b0319831681179093556040519116919082907f8be0079c531659141344cd1fd0a4f28419497f9722a3daafe3b4186f6b6457e090600090a35050565b6001600160a01b038216610a7257604051630b61174360e31b81526001600160a01b03831660048201526024016103f8565b6001600160a01b03838116600081815260056020908152604080832094871680845294825291829020805460ff191686151590811790915591519182527f17307eab39ab6107e8899845ad3d59bd9653f200f220920489ca2b5937696c31910160405180910390a3505050565b6001600160a01b0383163b15610c0357604051630a85bd0160e11b81526001600160a01b0384169063150b7a0290610b2190889088908790879060040161136a565b6020604051808303816000875af1925050508015610b5c575060408051601f3d908101601f19168201909252610b59918101906113a7565b60015b610bc5573d808015610b8a576040519150601f19603f3d011682016040523d82523d6000602084013e610b8f565b606091505b508051600003610bbd57604051633250574960e11b81526001600160a01b03851660048201526024016103f8565b805160208201fd5b6001600160e01b03198116630a85bd0160e11b14610c0157604051633250574960e11b81526001600160a01b03851660048201526024016103f8565b505b5050505050565b60606000610c1783610e07565b600101905060008167ffffffffffffffff811115610c3757610c376110ce565b6040519080825280601f01601f191660200182016040528015610c61576020820181803683370190505b5090508181016020015b600019016f181899199a1a9b1b9c1cb0b131b232b360811b600a86061a8153600a8504945084610c6b57509392505050565b8080610cb157506001600160a01b03821615155b15610d73576000610cc18461081d565b90506001600160a01b03831615801590610ced5750826001600160a01b0316816001600160a01b031614155b8015610d005750610cfe81846107b1565b155b15610d295760405163a9fbf51f60e01b81526001600160a01b03841660048201526024016103f8565b8115610d715783856001600160a01b0316826001600160a01b03167f8c5be1e5ebec7d5bd14f71427d1e84f3dd0314c0f7b2291e5b200ac8c7c3b92560405160405180910390a45b505b5050600090815260046020526040902080546001600160a01b0319166001600160a01b0392909216919091179055565b610dae838383610edf565b610547576001600160a01b038316610ddc57604051637e27328960e01b8152600481018290526024016103f8565b60405163177e802f60e01b81526001600160a01b0383166004820152602481018290526044016103f8565b60008072184f03e93ff9f4daa797ed6e38ed64bf6a1f0160401b8310610e465772184f03e93ff9f4daa797ed6e38ed64bf6a1f0160401b830492506040015b6d04ee2d6d415b85acef81000000008310610e72576d04ee2d6d415b85acef8100000000830492506020015b662386f26fc100008310610e9057662386f26fc10000830492506010015b6305f5e1008310610ea8576305f5e100830492506008015b6127108310610ebc57612710830492506004015b60648310610ece576064830492506002015b600a83106103025760010192915050565b60006001600160a01b03831615801590610f3d5750826001600160a01b0316846001600160a01b03161480610f195750610f1984846107b1565b80610f3d57506000828152600460205260409020546001600160a01b038481169116145b949350505050565b6001600160e01b03198116811461081a57600080fd5b600060208284031215610f6d57600080fd5b81356107aa81610f45565b60005b83811015610f93578181015183820152602001610f7b565b50506000910152565b60008151808452610fb4816020860160208601610f78565b601f01601f19169290920160200192915050565b6020815260006107aa6020830184610f9c565b600060208284031215610fed57600080fd5b5035919050565b80356001600160a01b038116811461100b57600080fd5b919050565b6000806040838503121561102357600080fd5b61102c83610ff4565b946020939093013593505050565b60008060006060848603121561104f57600080fd5b61105884610ff4565b925061106660208501610ff4565b929592945050506040919091013590565b60006020828403121561108957600080fd5b6107aa82610ff4565b600080604083850312156110a557600080fd5b6110ae83610ff4565b9150602083013580151581146110c357600080fd5b809150509250929050565b634e487b7160e01b600052604160045260246000fd5b600080600080608085870312156110fa57600080fd5b61110385610ff4565b935061111160208601610ff4565b925060408501359150606085013567ffffffffffffffff81111561113457600080fd5b8501601f8101871361114557600080fd5b803567ffffffffffffffff81111561115f5761115f6110ce565b604051601f8201601f19908116603f0116810167ffffffffffffffff8111828210171561118e5761118e6110ce565b6040528181528282016020018910156111a657600080fd5b8160208401602083013760006020838301015280935050505092959194509250565b600080604083850312156111db57600080fd5b6111e483610ff4565b91506111f260208401610ff4565b90509250929050565b600181811c9082168061120f57607f821691505b60208210810361122f57634e487b7160e01b600052602260045260246000fd5b50919050565b601f82111561054757806000526020600020601f840160051c8101602085101561125c5750805b601f840160051c820191505b81811015610c035760008155600101611268565b815167ffffffffffffffff811115611296576112966110ce565b6112aa816112a484546111fb565b84611235565b6020601f8211600181146112de57600083156112c65750848201515b600019600385901b1c1916600184901b178455610c03565b600084815260208120601f198516915b8281101561130e57878501518255602094850194600190920191016112ee565b508482101561132c5786840151600019600387901b60f8161c191681555b50505050600190811b01905550565b6000835161134d818460208801610f78565b835190830190611361818360208801610f78565b01949350505050565b6001600160a01b038581168252841660208201526040810183905260806060820181905260009061139d90830184610f9c565b9695505050505050565b6000602082840312156113b957600080fd5b81516107aa81610f4556fea2646970667358221220f93305a0f502a5f35911ab1f1e48da354790694f2c726415d439f6cbdf19e28564736f6c634300081c0033",
  "linkReferences": {},
  "deployedLinkReferences": {}
}