{
  "_format": "hh-sol-artifact-1",
  "contractName": "DomainValuator",
  "sourceName": "contracts/DomainValuator.sol",
  "abi": [
    {
      "inputs": [
        {
          "internalType": "address",
          "name": "_oracleAddress",
          "type": "address"
        }
      ],
      "stateMutability": "nonpayable",
      "type": "constructor"
    },
    {
      "inputs": [
        {
          "internalType": "address",
          "name": "owner",
          "type": "address"
        }
      ],
      "name": "OwnableInvalidOwner",
      "type": "error"
    },
    {
      "inputs": [
        {
          "internalType": "address",
          "name": "account",
          "type": "address"
        }
      ],
      "name": "OwnableUnauthorizedAccount",
      "type": "error"
    },
    {
      "anonymous": false,
      "inputs": [
        {
          "indexed": true,
          "internalType": "uint256",
          "name": "tokenId",
          "type": "uint256"
        },
        {
          "indexed": false,
          "internalType": "uint256",
          "name": "value",
          "type": "uint256"
        },
        {
          "indexed": false,
          "internalType": "uint256",
          "name": "aiScore",
          "type": "uint256"
        }
      ],
      "name": "DomainValueUpdated",
      "type": "event"
    },
    {
      "anonymous": false,
      "inputs": [
        {
          "indexed": true,
          "internalType": "address",
          "name": "previousOwner",
          "type": "address"
        },
        {
          "indexed": true,
          "internalType": "address",
          "name": "newOwner",
          "type": "address"
        }
      ],
      "name": "OwnershipTransferred",
      "type": "event"
    },
    {
      "inputs": [
        {
          "internalType": "uint256",
          "name": "",
          "type": "uint256"
        }
      ],
      "name": "aiScores",
      "outputs": [
        {
          "internalType": "uint256",
          "name": "",
          "type": "uint256"
        }
      ],
      "stateMutability": "view",
      "type": "function"
    },
    {
      "inputs": [
        {
          "internalType": "uint256[]",
          "name": "tokenIds",
          "type": "uint256[]"
        },
        {
          "internalType": "uint256[]",
          "name": "values",
          "type": "uint256[]"
        },
        {
          "internalType": "uint256[]",
          "name": "scores",
          "type": "uint256[]"
        }
      ],
      "name": "batchUpdateValues",
      "outputs": [],
      "stateMutability": "nonpayable",
      "type": "function"
    },
    {
      "inputs": [
        {
          "internalType": "uint256",
          "name": "",
          "type": "uint256"
        }
      ],
      "name": "domainValues",
      "outputs": [
        {
          "internalType": "uint256",
          "name": "",
          "type": "uint256"
        }
      ],
      "stateMutability": "view",
      "type": "function"
    },
    {
      "inputs": [
        {
          "internalType": "uint256",
          "name": "tokenId",
          "type": "uint256"
        }
      ],
      "name": "getAIScore",
      "outputs": [
        {
          "internalType": "uint256",
          "name": "",
          "type": "uint256"
        }
      ],
      "stateMutability": "view",
      "type": "function"
    },
    {
      "inputs": [
        {
          "internalType": "uint256",
          "name": "tokenId",
          "type": "uint256"
        }
      ],
      "name": "getDomainData",
      "outputs": [
        {
          "internalType": "uint256",
          "name": "value",
          "type": "uint256"
        },
        {
          "internalType": "uint256",
          "name": "score",
          "type": "uint256"
        },
        {
          "internalType": "uint256",
          "name": "updated",
          "type": "uint256"
        }
      ],
      "stateMutability": "view",
      "type": "function"
    },
    {
      "inputs": [
        {
          "internalType": "uint256",
          "name": "tokenId",
          "type": "uint256"
        }
      ],
      "name": "getDomainValue",
      "outputs": [
        {
          "internalType": "uint256",
          "name": "",
          "type": "uint256"
        }
      ],
      "stateMutability": "view",
      "type": "function"
    },
    {
      "inputs": [
        {
          "internalType": "uint256",
          "name": "",
          "type": "uint256"
        }
      ],
      "name": "lastUpdated",
      "outputs": [
        {
          "internalType": "uint256",
          "name": "",
          "type": "uint256"
        }
      ],
      "stateMutability": "view",
      "type": "function"
    },
    {
      "inputs": [],
      "name": "oracleAddress",
      "outputs": [
        {
          "internalType": "address",
          "name": "",
          "type": "address"
        }
      ],
      "stateMutability": "view",
      "type": "function"
    },
    {
      "inputs": [],
      "name": "owner",
      "outputs": [
        {
          "internalType": "address",
          "name": "",
          "type": "address"
        }
      ],
      "stateMutability": "view",
      "type": "function"
    },
    {
      "inputs": [],
      "name": "renounceOwnership",
      "outputs": [],
      "stateMutability": "nonpayable",
      "type": "function"
    },
    {
      "inputs": [
        {
          "internalType": "address",
          "name": "newOwner",
          "type": "address"
        }
      ],
      "name": "transferOwnership",
      "outputs": [],
      "stateMutability": "nonpayable",
      "type": "function"
    },
    {
      "inputs": [
        {
          "internalType": "uint256",
          "name": "tokenId",
          "type": "uint256"
        },
        {
          "internalType": "uint256",
          "name": "value",
          "type": "uint256"
        },
        {
          "internalType": "uint256",
          "name": "aiScore",
          "type": "uint256"
        }
      ],
      "name": "updateDomainValue",
      "outputs": [],
      "stateMutability": "nonpayable",
      "type": "function"
    },
    {
      "inputs": [
        {
          "internalType": "address",
          "name": "newOracle",
          "type": "address"
        }
      ],
      "name": "updateOracleAddress",
      "outputs": [],
      "stateMutability": "nonpayable",
      "type": "function"
    }
  ],
  "bytecode": "0x608060405234801561001057600080fd5b5060405161094438038061094483398101604081905261002f916100d4565b338061005557604051631e4fbdf760e01b81526000600482015260240160405180910390fd5b61005e81610084565b50600480546001600160a01b0319166001600160a01b0392909216919091179055610104565b600080546001600160a01b038381166001600160a01b0319831681178455604051919092169283917f8be0079c531659141344cd1fd0a4f28419497f9722a3daafe3b4186f6b6457e09190a35050565b6000602082840312156100e657600080fd5b81516001600160a01b03811681146100fd57600080fd5b9392505050565b610831806101136000396000f3fe608060405234801561001057600080fd5b50600436106100cf5760003560e01c8063a89ae4ba1161008c578063e197e6a311610066578063e197e6a314610201578063f2fde38b14610221578063f3a72a8914610234578063f7023bb61461025457600080fd5b8063a89ae4ba14610189578063c16c73ef1461019c578063d115d878146101af57600080fd5b80630311b82d146100d45780631bfa15101461010757806324a295221461011c57806347b39cb01461013c578063715018a61461015c5780638da5cb5b14610164575b600080fd5b6100f46100e236600461067e565b60009081526002602052604090205490565b6040519081526020015b60405180910390f35b61011a6101153660046106e3565b610267565b005b6100f461012a36600461067e565b60036020526000908152604090205481565b6100f461014a36600461067e565b60026020526000908152604090205481565b61011a61047d565b6000546001600160a01b03165b6040516001600160a01b0390911681526020016100fe565b600454610171906001600160a01b031681565b61011a6101aa366004610789565b610491565b6101e66101bd36600461067e565b600081815260016020908152604080832054600283528184205460039093529220549193909250565b604080519384526020840192909252908201526060016100fe565b6100f461020f36600461067e565b60016020526000908152604090205481565b61011a61022f3660046107b5565b610599565b6100f461024236600461067e565b60009081526001602052604090205490565b61011a6102623660046107b5565b6105d7565b6004546001600160a01b031633148061028a57506000546001600160a01b031633145b6102ca5760405162461bcd60e51b815260206004820152600c60248201526b155b985d5d1a1bdc9a5e995960a21b60448201526064015b60405180910390fd5b84831480156102d857508281145b6103165760405162461bcd60e51b815260206004820152600f60248201526e098cadccee8d040dad2e6dac2e8c6d608b1b60448201526064016102c1565b60005b8581101561047457848482818110610333576103336107e5565b9050602002013560016000898985818110610350576103506107e5565b9050602002013581526020019081526020016000208190555082828281811061037b5761037b6107e5565b9050602002013560026000898985818110610398576103986107e5565b9050602002013581526020019081526020016000208190555042600360008989858181106103c8576103c86107e5565b905060200201358152602001908152602001600020819055508686828181106103f3576103f36107e5565b905060200201357fbc4fb1ad782261fbd09d613db16181a680fd597d26db59bf20493fefca5e10b786868481811061042d5761042d6107e5565b90506020020135858585818110610446576104466107e5565b90506020020135604051610464929190918252602082015260400190565b60405180910390a2600101610319565b50505050505050565b610485610601565b61048f600061062e565b565b6004546001600160a01b03163314806104b457506000546001600160a01b031633145b6104ef5760405162461bcd60e51b815260206004820152600c60248201526b155b985d5d1a1bdc9a5e995960a21b60448201526064016102c1565b60648111156105335760405162461bcd60e51b815260206004820152601060248201526f496e76616c69642041492073636f726560801b60448201526064016102c1565b6000838152600160209081526040808320859055600282528083208490556003825291829020429055815184815290810183905284917fbc4fb1ad782261fbd09d613db16181a680fd597d26db59bf20493fefca5e10b7910160405180910390a2505050565b6105a1610601565b6001600160a01b0381166105cb57604051631e4fbdf760e01b8152600060048201526024016102c1565b6105d48161062e565b50565b6105df610601565b600480546001600160a01b0319166001600160a01b0392909216919091179055565b6000546001600160a01b0316331461048f5760405163118cdaa760e01b81523360048201526024016102c1565b600080546001600160a01b038381166001600160a01b0319831681178455604051919092169283917f8be0079c531659141344cd1fd0a4f28419497f9722a3daafe3b4186f6b6457e09190a35050565b60006020828403121561069057600080fd5b5035919050565b60008083601f8401126106a957600080fd5b50813567ffffffffffffffff8111156106c157600080fd5b6020830191508360208260051b85010111156106dc57600080fd5b9250929050565b600080600080600080606087890312156106fc57600080fd5b863567ffffffffffffffff81111561071357600080fd5b61071f89828a01610697565b909750955050602087013567ffffffffffffffff81111561073f57600080fd5b61074b89828a01610697565b909550935050604087013567ffffffffffffffff81111561076b57600080fd5b61077789828a01610697565b979a9699509497509295939492505050565b60008060006060848603121561079e57600080fd5b505081359360208301359350604090920135919050565b6000602082840312156107c757600080fd5b81356001600160a01b03811681146107de57600080fd5b9392505050565b634e487b7160e01b600052603260045260246000fdfea2646970667358221220e3df2896b82d05343a470bcdad8cbe9e5207dc194f46f2715373bbf2628f4aed64736f6c634300081c0033",
  "linkReferences": {},
  "deployedLinkReferences": {}
}